:020000040000fa
:04005c00fc020000a2
:020000040000fa
:04000c00fc020000f2
:020000040000fa
:04007000fc0200008e
:020000040000fa
:04007400fc0200008a
:020000040000fa
:04013400fc020000c9
:020000040000fa
:04015c00fc020000a1
:020000040000fa
:04003800fc020000c6
:020000040000fa
:04006000fc0200009e
:020000040000fa
:04008800fc02000076
:020000040000fa
:0400b800fc02000046
:020000040000fa
:04001c00fc020000e2
:020000040000fa
:04001000fc020000ee
:020000040000fa
:04002c00fc020000d2
:020000040000fa
:04003c00fc020000c2
:020000040000fa
:0400bc00fc02000042
:020000040000fa
:0400c000fc0200003e
:020000040000fa
:04026000fc0200009c
:020000040000fa
:04002800fc020000d6
:020000040000fa
:04007800fc02000086
:020000040000fa
:04009c00fc02000062
:020000040000fa
:0401b800fc02000045
:020000040000fa
:0401bc00fc02000041
:020000040000fa
:0401c000fc0200003d
:020000040000fa
:0401c400fc02000039
:020000040000fa
:0401c800fc02000035
:020000040000fa
:0401cc00fc02000031
:020000040000fa
:0401d000fc0200002d
:020000040000fa
:0401d400fc02000029
:020000040000fa
:0401d800fc02000025
:020000040000fa
:0401dc00fc02000021
:020000040000fa
:0401e000fc0200001d
:020000040000fa
:0401e400fc02000019
:020000040000fa
:0401e800fc02000015
:020000040000fa
:0401ec00fc02000011
:020000040000fa
:0401f000fc0200000d
:020000040000fa
:0401f400fc02000009
:020000040000fa
:0401f800fc02000005
:020000040000fa
:0401fc00fc02000001
:020000040000fa
:04020000fc020000fc
:020000040000fa
:04020400fc020000f8
:020000040000fa
:04020800fc020000f4
:020000040000fa
:04020c00fc020000f0
:020000040000fa
:04021000fc020000ec
:020000040000fa
:04021400fc020000e8
:020000040000fa
:04021800fc020000e4
:020000040000fa
:04021c00fc020000e0
:020000040000fa
:04022000fc020000dc
:020000040000fa
:04022400fc020000d8
:020000040000fa
:04022800fc020000d4
:020000040000fa
:04022c00fc020000d0
:020000040000fa
:04023000fc020000cc
:020000040000fa
:04023400fc020000c8
:020000040000fa
:04023800fc020000c4
:020000040000fa
:04023c00fc020000c0
:020000040000fa
:04024000fc020000bc
:020000040000fa
:04024400fc020000b8
:020000040000fa
:04024800fc020000b4
:020000040000fa
:04024c00fc020000b0
:020000040000fa
:04025000fc020000ac
:020000040000fa
:04025400fc020000a8
:020000040000fa
:04025800fc020000a4
:020000040000fa
:04025c00fc020000a0
:020000040000fa
:04026800fc02000094
:020000040000fa
:04006400fc0200009a
:020000040000fa
:04007c00fc02000082
:020000040000fa
:04008000fc0200007e
:020000040000fa
:04008400fc0200007a
:020000040000fa
:0400b000fc0200004e
:020000040000fa
:0400b400fc0200004a
:020000040000fa
:0400c400fc0200003a
:020000040000fa
:0400c800fc02000036
:020000040000fa
:0400cc00fc02000032
:020000040000fa
:0400d000fc0200002e
:020000040000fa
:0400d400fc0200002a
:020000040000fa
:0400d800fc02000026
:020000040000fa
:0400dc00fc02000022
:020000040000fa
:0400e000fc0200001e
:020000040000fa
:0400e400fc0200001a
:020000040000fa
:0400e800fc02000016
:020000040000fa
:0400f400fc0200000a
:020000040000fa
:0400f800fc02000006
:020000040000fa
:0400fc00fc02000002
:020000040000fa
:04010000fc020000fd
:020000040000fa
:04010400fc020000f9
:020000040000fa
:04010800fc020000f5
:020000040000fa
:04010c00fc020000f1
:020000040000fa
:04011400fc020000e9
:020000040000fa
:04011800fc020000e5
:020000040000fa
:04011c00fc020000e1
:020000040000fa
:04012000fc020000dd
:020000040000fa
:04012400fc020000d9
:020000040000fa
:04012800fc020000d5
:020000040000fa
:04013800fc020000c5
:020000040000fa
:04013c00fc020000c1
:020000040000fa
:04014000fc020000bd
:020000040000fa
:04014400fc020000b9
:020000040000fa
:04014800fc020000b5
:020000040000fa
:04014c00fc020000b1
:020000040000fa
:04015000fc020000ad
:020000040000fa
:04015400fc020000a9
:020000040000fa
:04015800fc020000a5
:020000040000fa
:04016000fc0200009d
:020000040000fa
:04016400fc02000099
:020000040000fa
:04016800fc02000095
:020000040000fa
:04016c00fc02000091
:020000040000fa
:04017000fc0200008d
:020000040000fa
:04017400fc02000089
:020000040000fa
:04017800fc02000085
:020000040000fa
:04017c00fc02000081
:020000040000fa
:04018000fc0200007d
:020000040000fa
:04018400fc02000079
:020000040000fa
:04018800fc02000075
:020000040000fa
:04018c00fc02000071
:020000040000fa
:04019000fc0200006d
:020000040000fa
:04019400fc02000069
:020000040000fa
:04019800fc02000065
:020000040000fa
:04019c00fc02000061
:020000040000fa
:0401a000fc0200005d
:020000040000fa
:0401a400fc02000059
:020000040000fa
:0401a800fc02000055
:020000040000fa
:0401ac00fc02000051
:020000040000fa
:0401b000fc0200004d
:020000040000fa
:0401b400fc02000049
:020000040000fa
:04026400fc02000098
:020000040000fa
:04006c00fc02000092
:020000040000fa
:0400f000fc0200000e
:020000040000fa
:04001800fc020000e6
:020000040000fa
:04003000fc020000ce
:020000040000fa
:04004000fc020000be
:020000040000fa
:04008c00fc02000072
:020000040000fa
:04009000fc0200006e
:020000040000fa
:04000800fc020000f6
:020000040000fa
:04027400fc02000088
:020000040000fa
:04027800fc02000084
:020000040000fa
:04027c00fc02000080
:020000040000fa
:04028000fc0200007c
:020000040000fa
:04026c00fc02000090
:020000040000fa
:04027000fc0200008c
:020000040000fa
:04011000fc020000ed
:020000040000fa
:04002400fc020000da
:020000040000fa
:04006800fc02000096
:020000040000fa
:0400ec00fc02000012
:020000040000fa
:04004c00fc020000b2
:020000040000fa
:04005000fc020000ae
:020000040000fa
:0400a800fc02000056
:020000040000fa
:0400ac00fc02000052
:020000040000fa
:04002000fc020000de
:020000040000fa
:04001400fc020000ea
:020000040000fa
:04003400fc020000ca
:020000040000fa
:04004400fc020000ba
:020000040000fa
:04004800fc020000b6
:020000040000fa
:04009400fc0200006a
:020000040000fa
:04009800fc02000066
:020000040000fa
:04012c00fc020000d1
:020000040000fa
:04005400fc020000aa
:020000040000fa
:04005800fc020000a6
:020000040000fa
:04013000fc020000cd
:020000040000fa
:0400a000fc0200005e
:020000040000fa
:0400a400fc0200005a
:020000040000fa
:080000000002040000000000f2
:020000040000fa
:100400006f0121000eff24000e0188000000000093
:10041000000020000000e000020032000001200087
:10042000200288000c000700c044200001002000ca
:100430001d000700000020000000e0000200320064
:100440000000020000000000220402000000000082
:100450000040da000000fe00200020000000e00064
:100460000200320010002000900188000000060009
:10047000f03fb1000180b10006003500ee03090035
:1004800000000000403fb1000180b100fbff3d00d3
:100490001000b000203fb0000200350000800900cd
:1004a0000000000000000600a10288008000780023
:1004b0000000eb001a003700e280400054a0b400b6
:1004c0009101ba00e280400054a0b4009102ba0049
:1004d000e280400054a0b4000002eb00472bde0095
:1004e000f507b200a6018800602ce10008003a0080
:1004f0000049eb000201e800020039003420ec0062
:1005000002f0a0008301e900f9ff3e00040037007b
:100510006128e100010032000082eb000b000700bf
:1005200011c3ba001101ba000604e00003003a004a
:100530000200e000e0ff3a0000000600f607b2000b
:10054000a602880082007800f5ff370004d0a300df
:10055000e20f49001c003900810278003549ba00d9
:100560000201e800020039003420ec0002f0a00093
:100570008301e9000f0032002549ba000201e800ba
:10058000020039003420ec0002f0a0008301e900f1
:10059000080032000400e0000600320015c9ba006d
:1005a0000201e800020039003420ec0002f0a00053
:1005b0008301e9008180e80054a0b4000300e0005a
:1005c000e2ff3a00000006009102ba0005597800e7
:1005d0008301e900f7ff3200c82ade0005597800e0
:1005e0008301e900f3ff32000400e000f1ff320074
:1005f00011d9ba00eeff37000040da000000fe001b
:10060000020ab900001bb9000200b80081004200d4
:08061000810043000000060018
:020000040000fa
:020000040002f8
:04afe000ccff0000a2
:020000040000fa
:020000040002f8
:04afe400ffff00006b
:020000040000fa
:020000040002f8
:04afe8005fff000007
:020000040000fa
:020000040002f8
:04afec003bff000027
:020000040000fa
:020000040002f8
:04aff000f8ff000066
:020000040000fa
:020000040002f8
:04aff400ffff00005b
:020000040000fa
:10061800010161008180ea0090806000010871009a
:10062800000006000282ea0091086200028161006f
:10063800100262000408710000000600908060004b
:100648000281fb000208de0000000600910871002c
:10065800100161000380fb000010de0000000600ae
:10066800889fbe00804478000044eb0005003700f6
:100678000060fe00a0e92000010020007aff0700ca
:100688000844e800894f5400f9ff39004f04be00c0
:1006980000000600889fbe008a1f78000045780089
:1006a8000044eb0006003700793e200010c0b3007c
:1006b800ebff07008904e900fcff3a000844e80062
:1006c8008a4f5400f8ff39004f0578004f04be00e8
:1006d80000000600881f7800000478000400370036
:1006e800d02f2000010020005fff0700f80fb100a5
:1006f800f00f2000800f5400f9ff3e000800e000d2
:10070800060032000880fb008000eb003200200069
:1007180003002000b8ff070053ff07004f047800cc
:1007280000000600881f78000004780004003700e5
:1007380060b62800e10020004bff0700f80fb10069
:10074800f00f2000800f5400f9ff3e000800e00081
:10075800060032000880fb008000eb00a2e92000c0
:1007680003002000a4ff07003fff07004f047800a4
:1007780000000600881f7800000478000300370096
:1007880000c0eb00b6ff0700f80fb100f00f200023
:10079800800f5400faff3e000800e000020032001b
:1007a80008407800aeff07004f04780000000600fc
:1007b800881f78000004780004003700c0872700ed
:1007c800218d230028ff0700f80fb100f00f20004b
:1007d800800f5400f9ff3e000800e00006003200d8
:1007e8000880fb008000eb0042b820009303200043
:1007f80081ff07001cff07004f0478000000060077
:10080800881f7800000478000300370000c0eb0060
:10081800a0ff0700f80fb100f00f2000800f540070
:10082800faff3e000800e0000200320008407800ad
:1008380098ff07004f04780000000600881f780022
:100848000e2eef001e2eef002e2eef004e2eef0084
:1008580008f02f0000e1200010086400a07080005c
:100868000800600090708800401f2000adff07005e
:1008780000e1200010086400a0708000f00fb300b1
:1008880090708800401f2000a6ff0700f0ff370087
:020000040000fa
:10089800021000001400000080000000001000009a
:0c08a800020000008000000000000000c2
:00000001FF
