:040000008A110B282E
:10000800FE00030EF0000A08F1008A115B288A112D
:100018000D2883018A11382801307602003003192F
:100028007502031C2328FF3029208A117508013E18
:10003800F50076080318013EFF3EF6001028750803
:1000480076040319080075082928F400F403740FCE
:100058002E2808000330F3009730F200F20B322804
:10006800F30B322837282A28831691010730831288
:100078009900C0308316810070308F0083160313F7
:1000880085018312850156208A1110208A11831652
:1000980003138501FF308312850056208A11102032
:1000A8008A114228F430F5000130F6000800710882
:0C00B8008A00700E8300FE0E7E0E090010
:02400E00D4F0EC
:00000001FF
