:020000000A28CC
:10000800FE00030EF0000A08F1001D2B0B28FA0170
:10001800FB0183120313C401C501C601C701830193
:10002800C2292808B3002708B2002608B10025080D
:10003800B0003B30B7009A30B600CA30B500B40102
:10004800AF012A082B0403190800B31F3C2829080C
:1000580084002D3083138000AF0AB009B109B209BA
:10006800B309B00A0319B10A0319B20A0319B30A8A
:10007800AE013308320431043004031DAE28AE014A
:10008800AE0AB401B40AB501B601B701AE28370803
:100098003302031D592836083202031D5928350832
:1000A8003102031D59283408300203185E282E082F
:1000B800031998283708F5003608F4003508F300C6
:1000C8003408F2003308F9003208F8003108F70064
:1000D8003008F6007A217208AE002F082907AC0014
:1000E80084002E08303E83138000AF0A2E08F200E9
:1000F800F301F401F5013708F9003608F80035086E
:10010800F7003408F600FA217208B0027308031CDD
:10011800730FB1027408031C740FB2027508031C34
:10012800750FB302AE01AE0A0A30F200F301F40112
:10013800F5013708F9003608F8003508F7003408E3
:10014800F6007A217508B7007408B6007308B50080
:100158007208B400C1200318B728370836043504DC
:100168003404031D4B28C120031808002F08290751
:10017800AC0084008313800108002F08AC00AD0197
:100188002B082D02031D08002A082C020800F50080
:10019800831603133D218316861283128612750E69
:1001A8000F39F60083160610761CDC287021DE282D
:1001B800831206100310F60C83168610761CE628A8
:1001C8006B21E828831286100310F60C831606119B
:1001D800761CF0287521F228831206110310F60CFC
:1001E80083168611761CFA286621FC28831286114C
:1001F80074080319002959216430C6225121C622E6
:100208006021C622831603133D217508F6000F30BE
:10021800F60583160610761C1329702115298312FA
:1002280006100310F60C83168610761C1D296B2108
:100238001F29831286100310F60C83160611761CEC
:10024800272975212929831206110310F60C831614
:100258008611761C31296621332983128611740888
:100268000319372959216430C6225121C622602139
:10027800C62A06108312061083168610831286106B
:1002880083160611831206118316861183128611AE
:1002980083160612831206120800831603138612A9
:1002A80083120608203886006434831606128312E7
:1002B8000608103886000800831603138612831276
:1002C80086126434831206080838860008008312F0
:1002D80006080238860008008312060801388600DE
:1002E800080083120608043886000800A001A1014E
:1002F800A201A30175087404730472040319B929CF
:10030800A401A40AF51B8E290310F20DF30DF40DB8
:10031800F50D85290310A00DA10DA20DA30D7508DB
:100328007902031DA12974087802031DA129730805
:100338007702031DA12972087602031CB3297208EB
:10034800F6027308031C730FF7027408031C740F7A
:10035800F8027508031C750FF90220140310F50C38
:10036800F40CF30CF20CA40B8E292308F5002208D8
:10037800F4002108F3002008F200080007309F006D
:10038800C0308316810013232D220130F421103050
:10039800A200A30189220030F701F70AF8220030F1
:1003A800F701F70AF8221130F4210A30A200A3015C
:1003B80089220930F701F70AF82283120313450846
:1003C800B9004408B800E2226430062383120313FC
:1003D800C40A0319C50A0319C60A0319C70ADD297D
:1003E80083120313A0008030A1000800A001A1011E
:1003F800A201A301721C142A7608A007770803112A
:100408000318013E031DA107780803110318013ED4
:10041800031DA207790803110318013E031DA30752
:100428000310F60DF70DF80DF90D0310F50CF40C8B
:10043800F30CF20C7508740473047204031DFE298E
:100448002308F5002208F4002108F3002008F20030
:100458000800831603133D21831686128312861221
:100468000C3006233330F401CB200230062333301E
:10047800F401CB20023006233230F401CB200230C5
:1004880006232C30F401CB20023006230630F40179
:10049800CB20023006230C30F401CB200230062397
:1004A8000130F401CB20023006230230F401CB20C6
:1004B80002300623132BFF1B692A83137F18831727
:1004C8000008840A0319FF0A080002308A00040899
:1004D800840A8207003431343634463436343234B0
:1004E800383420344C344334443420345434453480
:1004F800533454340034523475346E3420347434E4
:1005080069346D3465343A340034F9012008F20056
:100518002108F3002308F5002208F400A822720835
:10052800F80078087902031808001030F4007908F8
:10053800831203132007840021080318210AFF00EF
:100548005F22CB20F90A952AF601F7017508770290
:10055800031DB02A740876020318C12A76087207A8
:10056800840073080318730AFF005F22003A031916
:10057800C12AF60A0319F70AAA2A7708F3007608A7
:10058800F2000800F30064307302031CD82A2130FB
:10059800F200F20BCD2A6430F302C72A0330F200CE
:1005A800F20BD42A0A30F3020A307302031CDE2A43
:1005B800D22A0000F303730FDD2A08003808A500CB
:1005C8003908A6000030A61BFF30A700A8003A3063
:1005D800A9000A30AA00AB0115203A30A0000A3061
:1005E800A101A200A301892AF8007708031DFE2AA9
:1005F8008030FF2AC030F700F40178087707CB2055
:100608000230062BF300F303730F0B2B0800C730DF
:10061800F2000E2BF20B0D2B112B122B072B013096
:10062800F401CB20023006230230F401CB20023043
:10063800062B71088A00700E8300FE0E7E0E0900DC
:02400E0018FF99
:00000001FF
