:020000000A28CC
:10000800FE00030EF0000A08F100152B0B28FA0178
:10001800FB0183120313C4018301BF292808B3001D
:100028002708B2002608B1002508B0003B30B70009
:100038009A30B600CA30B500B401AF012A082B04C3
:1000480003190800B31F3928290884002D308313A9
:100058008000AF0AB009B109B209B309B00A03199F
:10006800B10A0319B20A0319B30AAE0133083204FC
:1000780031043004031DAB28AE01AE0AB401B40A42
:10008800B501B601B701AB2837083302031D56285E
:1000980036083202031D562835083102031D56283A
:1000A8003408300203185B282E08031995283708EE
:1000B800F5003608F4003508F3003408F200330878
:1000C800F9003208F8003108F7003008F600772107
:1000D8007208AE002F082907AC0084002E08303EB5
:1000E80083138000AF0A2E08F200F301F401F50132
:1000F8003708F9003608F8003508F7003408F60024
:10010800F2217208B0027308031C730FB10274085D
:10011800031C740FB2027508031C750FB302AE01FD
:10012800AE0A0A30F200F301F401F5013708F900CC
:100138003608F8003508F7003408F6007721750806
:10014800B7007408B6007308B5007208B400BE2082
:100158000318B4283708360435043404031D482826
:10016800BE20031808002F082907AC008400831359
:10017800800108002F08AC00AD012B082D02031DDB
:1001880008002A082C020800F500831603133A21F8
:100198008316861283128612750E0F39F60083169F
:1001A8000610761CD9286D21DB288312061003104F
:1001B800F60C83168610761CE3286821E52883123E
:1001C80086100310F60C83160611761CED28722192
:1001D800EF28831206110310F60C83168611761C7D
:1001E800F7286321F9288312861174080319FD285A
:1001F80056216430BE224E21BE225D21BE228316C6
:1002080003133A217508F6000F30F6058316061019
:10021800761C10296D211229831206100310F60C82
:1002280083168610761C1A2968211C2983128610C9
:100238000310F60C83160611761C24297221262930
:10024800831206110310F60C83168611761C2E29CC
:100258006321302983128611740803193429562121
:100268006430BE224E21BE225D21BE2A06108312B2
:1002780006108316861083128610831606118312C1
:1002880006118316861183128611831606128312AD
:1002980006120800831603138612831206082038F4
:1002A8008600643483160612831206081038860006
:1002B800080083160313861283128612643483128D
:1002C80006080838860008008312060802388600E7
:1002D8000800831206080138860008008312060801
:1002E800043886000800A001A101A201A301750835
:1002F8007404730472040319B629A401A40AF51B33
:100308008B290310F20DF30DF40DF50D822903105E
:10031800A00DA10DA20DA30D75087902031D9E293C
:1003280074087802031D9E2973087702031D9E290D
:1003380072087602031CB0297208F6027308031CBF
:10034800730FF7027408031C740FF8027508031C76
:10035800750FF90220140310F50CF40CF30CF20CD1
:10036800A40B8B292308F5002208F4002108F300C8
:100378002008F200080007309F00C0308316810073
:100388000B2325220130EC211030A200A301812289
:100398000030F701F70AF0220030F701F70AF022DF
:1003A8001130EC210A30A200A30181220930F701A3
:1003B800F70AF022831203134408B800B901DA22BD
:1003C8006430FE22831203134408013EC400DA2974
:1003D80083120313A0008030A1000800A001A1012E
:1003E800A201A301721C0C2A7608A0077708031142
:1003F8000318013E031DA107780803110318013EE5
:10040800031DA207790803110318013E031DA30762
:100418000310F60DF70DF80DF90D0310F50CF40C9B
:10042800F30CF20C7508740473047204031DF629A6
:100438002308F5002208F4002108F3002008F20040
:100448000800831603133A21831686128312861234
:100458000C30FE223330F401C8200230FE22333043
:10046800F401C8200230FE223230F401C8200230E4
:10047800FE222C30F401C8200230FE220630F4019E
:10048800C8200230FE220C30F401C8200230FE22BF
:100498000130F401C8200230FE220230F401C820E5
:1004A8000230FE220B2BFF1B612A83137F18831750
:1004B8000008840A0319FF0A080002308A000408A9
:1004C800840A8207003431343634463436343234C0
:1004D800383420344C344334443420345434453490
:1004E800533454340034523475346E3420347434F4
:1004F80069346D3465343A340034F9012008F20067
:100508002108F3002308F5002208F400A02272084D
:10051800F80078087902031808001030F400790808
:10052800831203132007840021080318210AFF00FF
:100538005722C820F90A8D2AF601F70175087702B3
:10054800031DA82A740876020318B92A76087207C8
:10055800840073080318730AFF005722003A03192E
:10056800B92AF60A0319F70AA22A7708F3007608C7
:10057800F2000800F30064307302031CD02A213013
:10058800F200F20BC52A6430F302BF2A0330F200EE
:10059800F20BCC2A0A30F3020A307302031CD62A63
:1005A800CA2A0000F303730FD52A08003808A500EB
:1005B8003908A6000030A61BFF30A700A8003A3073
:1005C800A9000A30AA00AB0112203A30A0000A3074
:1005D800A101A200A301812AF8007708031DF62AC9
:1005E8008030F72AC030F700F40178087707C82070
:1005F8000230FE2AF300F303730F032B0800C73001
:10060800F200062BF20B052B092B0A2BFF2A0130CF
:10061800F401C8200230FE220230F401C820023062
:10062800FE2A71088A00700E8300FE0E7E0E0900F5
:02400E0018FF99
:00000001FF
