:020000000A28CC
:10000800FE00030EF0000A08F100372B0B28FA0156
:1000180083120313C401C5018301F8292808B3001A
:100028002708B2002608B1002508B0003B30B70009
:100038009A30B600CA30B500B401AF012A082B04C3
:1000480003190800B31F3928290884002D308313A9
:100058008000AF0AB009B109B209B309B00A03199F
:10006800B10A0319B20A0319B30AAE0133083204FC
:1000780031043004031DAB28AE01AE0AB401B40A42
:10008800B501B601B701AB2837083302031D56285E
:1000980036083202031D562835083102031D56283A
:1000A8003408300203185B282E08031995283708EE
:1000B800F5003608F4003508F3003408F200330878
:1000C800F9003208F8003108F7003008F600772107
:1000D8007208AE002F082907AC0084002E08303EB5
:1000E80083138000AF0A2E08F200F301F401F50132
:1000F8003708F9003608F8003508F7003408F60024
:100108002E227208B0027308031C730FB102740820
:10011800031C740FB2027508031C750FB302AE01FD
:10012800AE0A0A30F200F301F401F5013708F900CC
:100138003608F8003508F7003408F6007721750806
:10014800B7007408B6007308B5007208B400BE2082
:100158000318B4283708360435043404031D482826
:10016800BE20031808002F082907AC008400831359
:10017800800108002F08AC00AD012B082D02031DDB
:1001880008002A082C020800F500831603133A21F8
:100198008316861283128612750E0F39F60083169F
:1001A8000610761CD9286821DB2883120610031054
:1001B800F60C83168610761CE3286321E528831243
:1001C80086100310F60C83160611761CED286D2197
:1001D800EF28831206110310F60C83168611761C7D
:1001E800F7287221F9288312861174080319FD284B
:1001F80056216430D0224E21D0225D21D022831690
:1002080003133A217508F6000F30F6058316061019
:10021800761C102968211229831206100310F60C87
:1002280083168610761C1A2963211C2983128610CE
:100238000310F60C83160611761C24296D21262935
:10024800831206110310F60C83168611761C2E29CC
:100258007221302983128611740803193429562112
:100268006430D0224E21D0225D21D02A061083127C
:1002780006108316861083128610831606118312C1
:1002880006118316861183128611831606128312AD
:1002980006120800831603138612831206082038F4
:1002A8008600643483160612831206081038860006
:1002B800080083160313861283128612643483128D
:1002C80006080238860008008312060801388600EE
:1002D80008008312060804388600080083120608FE
:1002E800083886000800A001A101A201A301750831
:1002F8007404730472040319B629A401A40AF51B33
:100308008B290310F20DF30DF40DF50D822903105E
:10031800A00DA10DA20DA30D75087902031D9E293C
:1003280074087802031D9E2973087702031D9E290D
:1003380072087602031CB0297208F6027308031CBF
:10034800730FF7027408031C740FF8027508031C76
:10035800750FF90220140310F50CF40CF30CF20CD1
:10036800A40B8B292308F5002208F4002108F300C8
:100378002008F2000800FF1BC92983137F18831780
:100388000008840A0319FF0A080001308A000408DB
:10039800840A8207003431343634463436343234F1
:1003A8003734413420344C344334443420345434C6
:1003B80045345334543400342034283443342934F5
:1003C8004F3445344C34453443345434523449342E
:1003D80043340034523475346E3420347434693400
:1003E8006D3465343A34003407309F00C0308316CA
:1003F80081002D236122123028220E30A200A30191
:100408009322033002232D23013028221130A20029
:10041800A30193220030F701F70A12232030282283
:100428000A30A200A30193220930F701F70A122328
:100438007A0883120313B800B901EC226430202330
:100448007A08013EFA00182A83120313A0008030AC
:10045800A1000800A001A101A201A301721C482A61
:100468007608A007770803110318013E031DA107AA
:10047800780803110318013E031DA2077908031128
:100488000318013E031DA3070310F60DF70DF80D21
:10049800F90D0310F50CF40CF30CF20C7508740448
:1004A80073047204031D322A2308F5002208F4009D
:1004B8002108F3002008F2000800831603133A21EC
:1004C80083168612831286120C3020233330F401EF
:1004D800C820023020233330F401C8200230202302
:1004E8003230F401C820023020232C30F401C82017
:1004F800023020230630F401C820023020230C30BB
:10050800F401C820023020230130F401C820023051
:1005180020230230F401C820023020232D2BF901BA
:100528002008F2002108F3002308F5002208F4004F
:10053800B2227208F800780879020318080010300F
:10054800F400790883120313200784002108031894
:10055800210AFF00BF21C820F90A9F2AF601F701E6
:1005680075087702031DBA2A740876020318CB2A85
:1005780076087207840073080318730AFF00BF2106
:10058800003A0319CB2AF60A0319F70AB42A77089E
:10059800F3007608F2000800F30064307302031CCD
:1005A800E22A2130F200F20BD72A6430F302D12A72
:1005B8000330F200F20BDE2A0A30F3020A3073022B
:1005C800031CE82ADC2A0000F303730FE72A08005B
:1005D8003808A5003908A6000030A61BFF30A70080
:1005E800A8003A30A9000A30AA00AB0112203A301C
:1005F800A0000A30A101A200A301932AF400F5018A
:100608007408750203180800FA302023FA302023F2
:10061800FA302023FA302023F50A042BF800770853
:10062800031D182B8030192BC030F700F40178080F
:100638007707C8200230202BF300F303730F252B14
:100648000800C730F200282BF20B272B2B2B2C2B62
:10065800212B0130F401C820023020230230F4019C
:10066800C8200230202B71088A00700E8300FE0E0D
:040678007E0E0900E9
:02400E0038FF79
:00000001FF
