:020000040000fa
:04005c00c4020000da
:020000040000fa
:04007c00c4020000ba
:020000040000fa
:04001000c402000026
:020000040000fa
:04025c00c4020000d8
:020000040000fa
:04027c00c4020000b8
:020000040000fa
:04021000c402000024
:020000040000fa
:0402b400c402000080
:020000040000fa
:0402b000c402000084
:020000040000fa
:04034000c4020000f3
:020000040000fa
:04030800c40200002b
:020000040000fa
:04030400c40200002f
:020000040000fa
:04034400c4020000ef
:020000040000fa
:04027000c4020000c4
:020000040000fa
:04027400c4020000c0
:020000040000fa
:04033400c4020000ff
:020000040000fa
:04036400c4020000cf
:020000040000fa
:04036000c4020000d3
:020000040000fa
:04031400c40200001f
:020000040000fa
:04031800c40200001b
:020000040000fa
:04023800c4020000fc
:020000040000fa
:04026000c4020000d4
:020000040000fa
:04028800c4020000ac
:020000040000fa
:0402b800c40200007c
:020000040000fa
:0402e000c402000054
:020000040000fa
:04031c00c402000017
:020000040000fa
:04033800c4020000fb
:020000040000fa
:04033c00c4020000f7
:020000040000fa
:04021c00c402000018
:020000040000fa
:04032400c40200000f
:020000040000fa
:04032800c40200000b
:020000040000fa
:04022c00c402000008
:020000040000fa
:04023c00c4020000f8
:020000040000fa
:0402bc00c402000078
:020000040000fa
:0402c000c402000074
:020000040000fa
:0402c400c402000070
:020000040000fa
:0402c800c40200006c
:020000040000fa
:04028000c4020000b4
:020000040000fa
:04028400c4020000b0
:020000040000fa
:04022800c40200000c
:020000040000fa
:04027800c4020000bc
:020000040000fa
:04029c00c402000098
:020000040000fa
:0402fc00c402000038
:020000040000fa
:04030000c402000033
:020000040000fa
:04026400c4020000d0
:020000040000fa
:04034800c4020000eb
:020000040000fa
:04034c00c4020000e7
:020000040000fa
:04035000c4020000e3
:020000040000fa
:04035400c4020000df
:020000040000fa
:04035800c4020000db
:020000040000fa
:04035c00c4020000d7
:020000040000fa
:04026c00c4020000c8
:020000040000fa
:0402f000c402000044
:020000040000fa
:04021800c40200001c
:020000040000fa
:04023000c402000004
:020000040000fa
:04024000c4020000f4
:020000040000fa
:04028c00c4020000a8
:020000040000fa
:04029000c4020000a4
:020000040000fa
:0402cc00c402000068
:020000040000fa
:0402d000c402000064
:020000040000fa
:0402d400c402000060
:020000040000fa
:0402d800c40200005c
:020000040000fa
:04020c00c402000028
:020000040000fa
:0402dc00c402000058
:020000040000fa
:04030c00c402000027
:020000040000fa
:04031000c402000023
:020000040000fa
:04032000c402000013
:020000040000fa
:04020800c40200002c
:020000040000fa
:04022000c402000014
:020000040000fa
:04022400c402000010
:020000040000fa
:04026800c4020000cc
:020000040000fa
:0402ec00c402000048
:020000040000fa
:04024c00c4020000e8
:020000040000fa
:04025000c4020000e4
:020000040000fa
:0402a800c40200008c
:020000040000fa
:0402ac00c402000088
:020000040000fa
:04021400c402000020
:020000040000fa
:04023400c402000000
:020000040000fa
:04024400c4020000f0
:020000040000fa
:04024800c4020000ec
:020000040000fa
:04029400c4020000a0
:020000040000fa
:04029800c40200009c
:020000040000fa
:0402e400c402000050
:020000040000fa
:0402e800c40200004c
:020000040000fa
:0402f400c402000040
:020000040000fa
:0402f800c40200003c
:020000040000fa
:04032c00c402000007
:020000040000fa
:04025400c4020000e0
:020000040000fa
:04025800c4020000dc
:020000040000fa
:04033000c402000003
:020000040000fa
:0402a000c402000094
:020000040000fa
:0402a400c402000090
:020000040000fa
:0400b400c402000082
:020000040000fa
:0400b000c402000086
:020000040000fa
:04014000c4020000f5
:020000040000fa
:04010800c40200002d
:020000040000fa
:04010400c402000031
:020000040000fa
:04014400c4020000f1
:020000040000fa
:04007000c4020000c6
:020000040000fa
:04007400c4020000c2
:020000040000fa
:04013400c402000001
:020000040000fa
:04016400c4020000d1
:020000040000fa
:04016000c4020000d5
:020000040000fa
:04011400c402000021
:020000040000fa
:04011800c40200001d
:020000040000fa
:04003800c4020000fe
:020000040000fa
:04006000c4020000d6
:020000040000fa
:04008800c4020000ae
:020000040000fa
:0400b800c40200007e
:020000040000fa
:0400e000c402000056
:020000040000fa
:04011c00c402000019
:020000040000fa
:04013800c4020000fd
:020000040000fa
:04013c00c4020000f9
:020000040000fa
:04001c00c40200001a
:020000040000fa
:04012400c402000011
:020000040000fa
:04012800c40200000d
:020000040000fa
:04002c00c40200000a
:020000040000fa
:04003c00c4020000fa
:020000040000fa
:0400bc00c40200007a
:020000040000fa
:0400c000c402000076
:020000040000fa
:0400c400c402000072
:020000040000fa
:0400c800c40200006e
:020000040000fa
:04008000c4020000b6
:020000040000fa
:04008400c4020000b2
:020000040000fa
:04002800c40200000e
:020000040000fa
:04007800c4020000be
:020000040000fa
:04009c00c40200009a
:020000040000fa
:0400fc00c40200003a
:020000040000fa
:04010000c402000035
:020000040000fa
:04006400c4020000d2
:020000040000fa
:04014800c4020000ed
:020000040000fa
:04014c00c4020000e9
:020000040000fa
:04015000c4020000e5
:020000040000fa
:04015400c4020000e1
:020000040000fa
:04015800c4020000dd
:020000040000fa
:04015c00c4020000d9
:020000040000fa
:04006c00c4020000ca
:020000040000fa
:0400f000c402000046
:020000040000fa
:04001800c40200001e
:020000040000fa
:04003000c402000006
:020000040000fa
:04004000c4020000f6
:020000040000fa
:04008c00c4020000aa
:020000040000fa
:04009000c4020000a6
:020000040000fa
:0400cc00c40200006a
:020000040000fa
:0400d000c402000066
:020000040000fa
:0400d400c402000062
:020000040000fa
:0400d800c40200005e
:020000040000fa
:04000c00c40200002a
:020000040000fa
:0400dc00c40200005a
:020000040000fa
:04010c00c402000029
:020000040000fa
:04011000c402000025
:020000040000fa
:04012000c402000015
:020000040000fa
:04000800c40200002e
:020000040000fa
:04002000c402000016
:020000040000fa
:04002400c402000012
:020000040000fa
:04006800c4020000ce
:020000040000fa
:0400ec00c40200004a
:020000040000fa
:04004c00c4020000ea
:020000040000fa
:04005000c4020000e6
:020000040000fa
:0400a800c40200008e
:020000040000fa
:0400ac00c40200008a
:020000040000fa
:04001400c402000022
:020000040000fa
:04003400c402000002
:020000040000fa
:04004400c4020000f2
:020000040000fa
:04004800c4020000ee
:020000040000fa
:04009400c4020000a2
:020000040000fa
:04009800c40200009e
:020000040000fa
:0400e400c402000052
:020000040000fa
:0400e800c40200004e
:020000040000fa
:0400f400c402000042
:020000040000fa
:0400f800c40200003e
:020000040000fa
:04012c00c402000009
:020000040000fa
:04005400c4020000e2
:020000040000fa
:04005800c4020000de
:020000040000fa
:04013000c402000005
:020000040000fa
:0400a000c402000096
:020000040000fa
:0400a400c402000092
:020000040000fa
:080000000002040000000000f2
:020000040000fa
:100400006f8120000e7f24000e0188000000000094
:10041000000020000000e000020032000001200087
:10042000200288000c00070020412000010020006d
:100430001f000700000020000000e0000200320062
:100440000000020000000000ec03020000000000b9
:100450000040da000000fe004440a9000000200037
:100460000000e0000300320000002000a00188002e
:100470004440a80000000600f03fb1000180b10038
:1004800006003500ee03090000000000403fb10007
:100490000180b100fbff3d001000b000203fb00024
:1004a0000200350000800900000000000000060086
:1004b00091018800800078000000eb0015003700f3
:1004c000e280400032a0b4009101ba00e280400016
:1004d00032a0b4009102ba00e280400032a0b40021
:1004e0000002eb00472bde00f507b200602ce100b4
:1004f00004003a000059eb008301e900fdff3e00d3
:10050000040037006128e100010032000082eb00a6
:100510000b00070011c3ba001101ba000604e00085
:1005200003003a000200e000e5ff3a000000060088
:10053000f607b2009601880082007800f5ff3700c8
:100540003159ba008301e9000c0032002159ba0088
:100550008301e900080032000400e00003003a00d3
:10056000e280400032a0b400f5ff370011d9ba0094
:100570008301e900faff3a008100e800e1804000d1
:1005800032a0b400000006000040da000000fe00c7
:10059000020ab900001bb9000200b8008100420045
:0805a000810043000000060089
:020000040000fa
:0200000401f009
:04000000ffff0000fe
:020000040000fa
:0200000401f009
:04000400ffff0000fa
:020000040000fa
:0200000401f009
:04000800ffff0000f6
:020000040000fa
:0200000401f009
:04000c005fff000092
:020000040000fa
:0200000401f009
:04001000ffff0000ee
:020000040000fa
:0200000401f009
:04001400ffff0000ea
:020000040000fa
:0200000401f009
:04001800ffff0000e6
:020000040000fa
:0200000401f009
:04001c00ffff0000e2
:020000040000fa
:1005a800010161008180ea0090806000010871000b
:1005b800000006000282ea009108620002816100e0
:1005c80010026200040871000000060090806000bc
:1005d8000281fb000208de0000000600910871009d
:1005e800100161000380fb000010de00000006001f
:1005f800889fbe00804478000044eb000500370067
:100608000060fe0000fa20000100200098ff0700ab
:100618000844e800894f5400f9ff39004f04be0030
:1006280000000600889fbe008a1f780000457800f9
:100638000044eb0006003700793e200010c0b300ec
:10064800ebff07008904e900fcff3a000844e800d2
:100658008a4f5400f8ff39004f0578004f04be0058
:1006680000000600889fbe000004780004003700e0
:10067800c03f2000010020007dff0700f80fb100f7
:10068800f00f2000800f5400f9ff3e000800e00042
:10069800070032000884fb008004eb004248dd00bc
:1006a800ce40de00810070004240dd0070ff070090
:1006b8004f04be0000000600881f78000004780080
:1006c8000400370000062900f100200068ff070039
:1006d800f80fb100f00f2000800f5400f9ff3e0022
:1006e8000800e000060032000880fb008000eb00f4
:1006f80002fa200003002000a3ff07005cff0700a8
:100708004f04780000000600881f78000004780075
:100718000300370000c0eb00b5ff0700f80fb10079
:10072800f00f2000800f5400faff3e000800e000a0
:100738000200320008407800adff07004f0478003f
:1007480000000600881f78000004780004003700c5
:1007580000702f00b1cc230045ff0700f80fb1004f
:10076800f00f2000800f5400f9ff3e000800e00061
:10077800060032000880fb008000eb000290200099
:10078800d303200080ff070039ff07004f047800db
:1007980000000600881f7800000478000300370076
:1007a80000c0eb009fff0700f80fb100f00f20001a
:1007b800800f5400faff3e000800e00002003200fb
:1007c8000840780097ff07004f04780000000600f3
:1007d800881f78002ca3ef002aa3ef0008f02f0051
:1007e800602c20001008640050168000080060008b
:1007f80040168800401f2000afff0700602c200033
:100808001008640050168000f00fb30040168800ee
:0c081800401f2000a8ff0700f0ff370081
:020000040000fa
:10082400020800001400000000000000000800009e
:0c083400020000000000000000000000b6
:00000001FF
