:020000000B28CB
:10000800DE00030E8312A0000A08A10052288316FE
:10001800FF239000831210288312A601830114285D
:1000280007309900C0308316810083168701831238
:1000380026088700F430A4000130A5002C202608EB
:10004800013EA6004E302602031C1928A6011928D5
:1000580001302502003003192402031C3E28FF301A
:1000680044202408013EA40025080318013EFF3E51
:10007800A5002C282408250403190800240844286E
:10008800A3008312A303230F4A280800C730A20045
:100098004D28A20B4C2850285128452821088A00B1
:0A00A800200E8300DE0E5E0E09003C
:02400E0094FF1D
:00000001FF
