:020000000A28CC
:10000800FE00030EF0000A08F10042280B28F40154
:10001800F50183010F2807309F00C0308316810047
:10002800F501831603138601831286016430352097
:10003800831603138601FF3083128600643035204F
:100048000530F50A7502031C15288316031386016B
:100058007408831286007408013EF400FA303520D3
:100068002928F300F303730F3A280800C730F20079
:100078003D28F20B3C2840284128362871088A0080
:0A008800700E8300FE0E7E0E0900CC
:02400E0018FF99
:00000001FF
