:020000000A28CC
:10000800FE00030EF0000A08F10043280B28F40153
:10001800F501F6018301102807309F00C0308316D0
:100028008100F601831603138501FF3083128500D2
:1000380064303620831603138501831285016430EA
:1000480036200530F60A7602031C16288316031399
:100058008501750883128500643036207508013ED5
:10006800F5002A28F300F303730F3B280800C73074
:10007800F2003E28F20B3D28412842283728710813
:0C0088008A00700E8300FE0E7E0E090040
:02400E0018FF99
:00000001FF
