:040000008A110B282E
:10000800FE00030EF0000A08F1008A11992B8A11EC
:100018000D2883120313C201C301C401C501830162
:100028008A110B2B3608A5003708A6000030A61B3E
:10003800FF30A700A8003830A9000A30AA00AB0199
:1000480098218A113830F8000A30F901FA00FB01CA
:100058003C28F8007708031D332880303428C03046
:10006800F700F40178087707F3208A110230E428B2
:1000780083120313A1017808F2007908F3007B08C2
:10008800F5007A08F40061208A117208A00020089F
:100098002102031808001030F400210878078400B2
:1000A80079080318790AFF008A1161238A11F3205D
:1000B8008A1183120313A10A4B28F601F701750868
:1000C8007702031D69287408760203187C287608CD
:1000D8007207840073080318730AFF008A116123EA
:1000E8008A11003A03197C28F60A0319F70A6328CB
:1000F8007708F3007608F20008000130F401F320D5
:100108008A110230E4208A110230F401F3208A11A6
:100118000230E428F500F601750876020318080095
:10012800FA30E4208A11FA30E4208A11FA30E42007
:100138008A11FA30E4208A11F60A9028C4228A111A
:1001480083160711831207110C30E4208A1133300B
:10015800F401F3208A110230E4208A113330F401CB
:10016800F3208A110230E4208A113230F401F3209E
:100178008A110230E4208A112C30F401F3208A110C
:100188000230E4208A110630F401F3208A1102308B
:10019800E4208A110C30F401F3208A110230E420A3
:1001A8008A110130F401F3208A110230E4208A1107
:1001B8000230F401F3208A110230E4208A118128E8
:1001C800F400F403740FE92808000330F3009730B3
:1001D800F200F20BED28F30BED28F228E528F500E4
:1001E80083160313C4228A11831607118312071179
:1001F800750E0F39F60083160510761C0629F722AE
:100208008A110829831205100310F60C831685102D
:10021800761C112906238A111329831285100310CD
:10022800F60C83160511761C1C29FC228A111E293E
:10023800831205110310F60C83160710761C272964
:1002480001238A11292983120710740803192E29FA
:10025800F0228A1164307A218A11E2228A117A21E5
:100268008A11EA228A117A218A1183160313C42279
:100278008A117508F6000F30F60583160510761CEE
:100288004829F7228A114A29831205100310F60C0F
:1002980083168510761C532906238A115529831243
:1002A80085100310F60C83160511761C5E29FC22B6
:1002B8008A116029831205110310F60C83160710A2
:1002C800761C692901238A116B2983120710740887
:1002D80003197029F0228A1164307A218A11E222E6
:1002E8008A117A218A11EA228A117A29F300643064
:1002F8007302031C8E294230F200F20B81290000A0
:100308006430F3027B290630F200F20B89290000E1
:100318000A30F3020A307302031C942987299429AE
:10032800F303730F932908002808B1002708B000C9
:100338002608AF002508AE003B30B5009A30B4005F
:10034800CA30B300B201AD012A082B040319080012
:10035800B11FBF29290884002D3083138000AD0AFE
:10036800AE09AF09B009B109AE0A0319AF0A0319FA
:10037800B00A0319B10AAC01310830042F042E0465
:10038800031D342AAC01AC0AB201B20AB301B401AC
:10039800B501342A35083102031DDC29340830023E
:1003A800031DDC2933082F02031DDC2932082E0225
:1003B8000318E1292C0803191D2A3508F50034080B
:1003C800F4003308F3003208F2003108F90030086D
:1003D800F8002F08F7002E08F60049228A11720843
:1003E800AC002D082907FA0084002C08303E83133E
:1003F8008000AD0A2C08F200F301F401F50135087C
:10040800F9003408F8003308F7003208F6009122A2
:100418008A117208AE027308031C730FAF027408C6
:10042800031C740FB0027508031C750FB102AC01F0
:10043800AC0A0A30F200F301F401F5013508F900BD
:100448003408F8003308F7003208F60049228A1108
:100458007508B5007408B4007308B3007208B200D8
:10046800D8228A1103183E2A35083404330432048A
:10047800031DCE29D8228A11031808002D08290740
:10048800FA008400831380010800A001A101A201E1
:10049800A30175087404730472040319882AA4015B
:1004A800A40AF51B5D2A0310F20DF30DF40DF50DEA
:1004B800542A0310A00DA10DA20DA30D75087902F1
:1004C800031D702A74087802031D702A73087702C6
:1004D800031D702A72087602031C822A7208F6022B
:1004E8007308031C730FF7027408031C740FF802D7
:1004F8007508031C750FF90220140310F50CF40C91
:10050800F30CF20CA40B5D2A2308F5002208F40072
:100518002108F3002008F2000800A001A101A201AF
:10052800A301721CAB2A7608A007770803110318E9
:10053800013E031DA107780803110318013E031D9E
:10054800A207790803110318013E031DA30703102E
:10055800F60DF70DF80DF90D0310F50CF40CF30C6E
:10056800F20C7508740473047204031D952A230899
:10057800F5002208F4002108F3002008F200080022
:1005880005108312051083168510831285108316B3
:10059800051183120511831607108312071083169D
:1005A80087108312871008002D08FA00FB012B081A
:1005B8007B02031D08002A087A0208008316031329
:1005C800071183120708043887006434831603135D
:1005D80007118312071164348316871083120708E2
:1005E80002388700080083120508013885000800D2
:1005F80083120508043885000800831207080138AB
:100608008700080083120508023885000800831651
:100618009101073083129900C03083168100703031
:100628008F008A11A2208A118A1181208A11113023
:10063800F8008030F9000E30FA00FB018A113C20E6
:100648008A1103308A118E208A118A1181208A1119
:100658000130F8008030F9001030FA00FB018A11EF
:100668003C208A110030F701F70A8A112D208A11DF
:100678001F30F8008030F9000A30FA00FB018A11B7
:100688003C208A110930F701F70A8A112D208A11B6
:10069800831203134308B7004208B6008A111620D4
:1006A8008A11C20A0319C30A0319C40A0319C50A1D
:1006B80064308A11E4208A11462BFF1B6B2B8313AD
:1006C8007F1883170008840A0319FF0A08000330FB
:1006D8008A000408840A82070034313436344634E8
:1006E80036343834383420344C34433444342034A9
:1006F800543445345334543400342834433429347E
:1007080020344F3445344C34453443345434523413
:10071800493443340034523475346E3420345434FC
:1007280069346D3465343A34003471088A00700EC7
:080738008300FE0E7E0E090095
:02400E00F4F0CC
:00000001FF
