:0400000007EF00F016
:1000080005820592110042EF00F00F01386B396B41
:100018003A6B3B6B3C6B700ED36E92908950010922
:1000280009D824EC00F092908950FE0B03D824ECF8
:1000380000F0F3D7806E010E046EF40E036EF40C1C
:1000480006D0FF0E34EC00F0032AFF0E042204044D
:10005800F8E203500410D8B41200035034EF00F053
:10006800026E08D0060E016E300EE82EFED7012E65
:10007800FCD700D002060228F5E11200059005928F
:06008800000109EF00F089
:020000040030CA
:0E000000FF89193CFFB580FF0FC00FE00F40D5
:00000001FF
