:040000000DEF00F010
:100008000882F2B2F2A803D02BEC00F0F292089228
:10001800110070EF00F00F01386B396B3A6B3B6BD6
:100028003C6B700ED36EF18CF28EF2883CEC00F0D3
:1000380008D844EC00F040EC00F003D844EC00F0A1
:10004800F2D7806E010E066EF40E056EF40C076A88
:100058000A0E076401D00A0C0FD8806E640E62EC99
:1000680000F006D8806E640E62EC00F0072AF0D724
:10007800929089500109120092908950FE0B12004B
:1000880006D0FF0E54EC00F0052AFF0E06220604E7
:10009800F8E205500610D8B41200055054EF00F0ED
:1000A800046E08D0060E036E300EE82EFED7032E1F
:1000B800FCD700D004060428F5E11200026E08D02F
:1000C800060E016E300EE82EFED7012EFCD700D0AA
:1000D80002060228F5E11200076A0890089200015A
:0400E8000FEF00F026
:020000040030CA
:0E000000FF89193CFFB580FF0FC00FE00F40D5
:00000001FF
