:0400000007EF00F016
:0A0008004182419211000BEF0AF053
:101000000041206669726D77617265204279204FD8
:10101000454C4543545249430050494331384634C6
:10102000364B3232205541525420544553540052CD
:0D103000656164793F00476F21000A0000F0
:10103E000EC019F00FC01AF010C01BF011C01CF03A
:10104E001D6ACA0E1E6E9A0E1F6E3B0E206E186A19
:10105E001350141001E112001CAE0ED01250D96EB6
:10106E00DA6A2D0EDF6E182A1C1E1B1E1A1E196C34
:10107E00000E1A221B221C22176A19501A101B105E
:10108E001C105BE1010E176E1D6E1E6A1F6A206A30
:10109E0054D01D50195C1E501A581F501B5820500A
:1010AE001C5802E2175032E019C001F01AC002F0CB
:1010BE001BC003F01CC004F01DC005F01EC006F0DE
:1010CE001FC007F020C008F015EC09F00150176E94
:1010DE0049D81750300FDF6E182A1750016E026A6A
:1010EE00036A046A1DC005F01EC006F01FC007F09B
:1010FE0020C008F0ACEC09F00150195E02501A5AEB
:10110E0003501B5A04501C5A010E176E1DC001F0DD
:10111E001EC002F01FC003F020C004F00A0E056EC0
:10112E00066A076A086A15EC09F001C01DF002C0D4
:10113E001EF003C01FF004C020F00CD805E21D50B5
:10114E001E101F102010A5E105D8D8B012000AD825
:10115E00DF6A000C1850156E166A1350155C145089
:10116E001658120012501824D96EDA6A12000F01A6
:10117E00386B396B3A6B3B6B3C6B700ED36E26EC57
:10118E000AF0190E44D8160E0B6E50EC09F03A0EFA
:10119E003ED8020E0B6E50EC09F0010E38D8180E28
:1011AE000B6E50EC09F03A0E32D8020E0B6E50EC6C
:1011BE0009F02F0E2CD8070E0B6E50EC09F03A0EDC
:1011CE0026D8020E0B6E50EC09F0030EE9EC09F076
:1011DE00360E1DD8040E0B6E50EC09F0030EE9EC22
:1011EE0009F03DC021F03EC022F03FC023F040C0C8
:1011FE0024F0D2EC09F03A0E0AD8020E0B6E50EC27
:10120E0009F03D2A000E3E223F224022EAD7096E07
:10121E000950D8A4100E0A6E0C6A1200096A0A6AE6
:10122E000B6A0C6A055006100710081029E0010E13
:10123E000D6E06D0D89005360636073608360D2ABE
:10124E0008AEF8D7D89009360A360B360C3605504C
:10125E00015C06500258075003580850045809E321
:10126E000550015E0650025A0750035A0850045AA0
:10127E000980D89008320732063205320D2EE2D799
:10128E0009C001F00AC002F00BC003F00CC004F05C
:10129E00120009C001F00AC002F00BC003F00CC02E
:1012AE0004F082EC09F001C00FF002C010F0116AD8
:1012BE00126A1BD0115009240D6E12500A200E6EA8
:1012CE000DC0F6FF0EC0F7FF000EF86E0F0EF7649E
:1012DE0003D00800F55002D0A6EC09F0016E026AA8
:1012EE0021EC0AF0112A000E12220F50115C105040
:1012FE001258E0E31200076A086A17D0075001245B
:10130E00056E08500220066E05C0F6FF06C0F7FFF8
:10131E00000EF86E0F0EF76403D00800F55001D0E2
:10132E000ED8000907E0074A082A0350075C04504C
:10133E000858E4E307C001F008C002F01200F6CF2F
:10134E00E9FFF7CFEAFFEF501200096A0A6A0B6A4B
:10135E000C6A01A008D00550092606500A22075033
:10136E000B2208500C22D890053606360736083662
:10137E00D8900432033202320132015002100310AF
:10138E000410E7E109C001F00AC002F00BC003F03F
:10139E000CC004F0120021C00EF022C00FF023C0CA
:1013AE0010F024C011F0250E126E146A140E136E76
:1013BE001FEC08F0250E096E0A6A0C6A140E0B6EED
:1013CE0050EF09F0036E046A0DD0FA0EFDEC09F031
:1013DE00FA0EFDEC09F0FA0EFDEC09F0FA0EFDEC3A
:1013EE0009F0042A0350045CF0E31200026E08D0E8
:1013FE00060E016E300EE82EFED7012EFCD700D061
:10140E0002060228F5E1120000EE39F0080EEE6A2F
:10141E00E806FDE141904192000EF86E0001BEEF2C
:10142E0008F0AC84080EAF6EAB6AAB8EAC8AAB889C
:10143E009D9A12009EA8FED701C0ADFF120018EFB4
:02144E000AF0A2
:020000040030CA
:0E000000FF89193CFFB580FF0FC00FE00F40D5
:00000001FF
