:0400000007EF00F016
:0A0008004782479211007BEF0AF0D7
:101000000041206669726D77617265204279204FD8
:10101000454C4543545249430050494331384634C6
:10102000364B3232204144432054455354000A0089
:0110300000BF
:101032000EC019F00FC01AF010C01BF011C01CF046
:101042001D6ACA0E1E6E9A0E1F6E3B0E206E186A25
:101052001350141001E112001CAE0ED01250D96EC2
:10106200DA6A2D0EDF6E182A1C1E1B1E1A1E196C40
:10107200000E1A221B221C22176A19501A101B106A
:101082001C105BE1010E176E1D6E1E6A1F6A206A3C
:1010920054D01D50195C1E501A581F501B58205016
:1010A2001C5802E2175032E019C001F01AC002F0D7
:1010B2001BC003F01CC004F01DC005F01EC006F0EA
:1010C2001FC007F020C008F03DEC09F00150176E78
:1010D20049D81750300FDF6E182A1750016E026A76
:1010E200036A046A1DC005F01EC006F01FC007F0A7
:1010F20020C008F0FEEC09F00150195E02501A5AA5
:1011020003501B5A04501C5A010E176E1DC001F0E9
:101112001EC002F01FC003F020C004F00A0E056ECC
:10112200066A076A086A3DEC09F001C01DF002C0B8
:101132001EF003C01FF004C020F00CD805E21D50C1
:101142001E101F102010A5E105D8D8B012000AD831
:10115200DF6A000C1850156E166A1350155C145095
:101162001658120012501824D96EDA6A12000F01B2
:10117200386B396B3A6B3B6B3C6B700ED36EA0ECE9
:101182000AF0190E32D8150E0B6E78EC09F02E0EFD
:101192002CD8020E0B6E78EC09F0010E26D8180E30
:1011A2000B6E78EC09F02E0E20D8020E0B6E78EC46
:1011B20009F057EC0AF008C03DF009C03EF03F6A62
:1011C200406A3DC021F03EC022F03FC023F040C043
:1011D20024F040EC0AF02E0E08D8020E0B6E78ECCA
:1011E20009F0640E6DEC0AF0E4D7096E0950D8A438
:1011F200100E0A6E0C6A1200066E0250070BC06EC9
:101202000BD0800E456E950E436E0F0E446E3B0E54
:10121200416E0F0E426E03D006501B0AF2E00350DD
:1012220009E003C005F0030E0516D8900536D890E4
:101232000534C11217D8DF50466E4650451012D8F9
:10124200DF6E15D8DF50451012D8DF6E0644E8462F
:10125200FC0B0109C26E045024EC0AF0C2500209D0
:10126200C26E120043C0D9FF44C0DAFF120041C06F
:10127200D9FF42C0DAFF1200096A0A6A0B6A0C6AD5
:10128200055006100710081029E0010E0D6E06D059
:10129200D89005360636073608360D2A08AEF8D736
:1012A200D89009360A360B360C360550015C0650CA
:1012B2000258075003580850045809E30550015ECC
:1012C2000650025A0750035A0850045A0980D8900F
:1012D20008320732063205320D2EE2D709C001F07C
:1012E2000AC002F00BC003F00CC004F0120009C0E7
:1012F20001F00AC002F00BC003F00CC004F0D4EC01
:1013020009F001C00FF002C010F0116A126A1BD07E
:10131200115009240D6E12500A200E6E0DC0F6FFF8
:101322000EC0F7FF000EF86E0F0EF76403D0080030
:10133200F55002D0F8EC09F0016E026A9BEC0AF05B
:10134200112A000E12220F50115C10501258E0E3C5
:101352001200056EC2B2FED705501AE0C450036EE9
:10136200046AD89003360436D8900336043603C094
:1013720006F004C007F0C3CF03F0060E046ED89047
:101382000332042EFCD706500310066E075003D01A
:10139200C4CF06F0076AC2500209C26E06C001F04D
:1013A20007C002F01200076A086A17D0075001242A
:1013B200056E08500220066E05C0F6FF06C0F7FF54
:1013C200000EF86E0F0EF76403D00800F55001D03E
:1013D2000ED8000907E0074A082A0350075C0450A8
:1013E2000858E4E307C001F008C002F01200F6CF8B
:1013F200E9FFF7CFEAFFEF501200096A0A6A0B6AA7
:101402000C6A01A008D00550092606500A2207508E
:101412000B2208500C22D8900536063607360836BD
:10142200D89004320332023201320150021003100A
:101432000410E7E109C001F00AC002F00BC003F09A
:101442000CC004F01200016E06D0850EE82EFED705
:1014520000F0640E015E640E0160F7D706D00D0E37
:10146200E82EFED700F00A0E015E0A0E0160F7D7E1
:1014720002D000D000D001060128FBE1120021C0F9
:101482000EF022C00FF023C010F024C011F0250E80
:10149200126E146A140E136E19EC08F0250E096E02
:1014A2000A6A0C6A140E0B6E78EF09F0030E026ED4
:1014B200036A280E046E1B0EFDEC08F0010EAAEC66
:1014C20009F001C00AF002C00BF088EC0AF00AC071
:1014D20008F00BC009F01200026E08D0060E016E71
:1014E200300EE82EFED7012EFCD700D002060228CD
:1014F200F5E1120000EE39F00E0EEE6AE806FDE1AB
:1015020047904792000EF86E0001B8EF08F033ECF6
:1015120009F046C0DFFF38EC09F0000EDF6AC26A4C
:101522001200AC84080EAF6EAB6AAB8EAC8AAB888D
:101532009D9A12009EA8FED701C0ADFF120092EF45
:021542000AF0AD
:020000040030CA
:0E000000FF89193CFFB580FF0FC00FE00F40D5
:00000001FF
