:0400000007EF00F016
:0A0008003C823C9211005CEF0BF00B
:101000000020202020202020202020202020202000
:101010002020202020202020005049433138463411
:10102000364B3232204C4344204932430028632956
:10103000204F454C454354524943005241302041D2
:101040004443203D00000EC019F00FC01AF010C03C
:101050001BF011C01CF01D6ACA0E1E6E9A0E1F6E88
:101060003B0E206E186A1350141001E112001CAEE2
:101070000ED01250D96EDA6A2D0EDF6E182A1C1EA1
:101080001B1E1A1E196C000E1A221B221C22176A24
:1010900019501A101B101C105BE1010E176E1D6E0B
:1010A0001E6A1F6A206A54D01D50195C1E501A58BF
:1010B0001F501B5820501C5802E2175032E019C034
:1010C00001F01AC002F01BC003F01CC004F01DC0E8
:1010D00005F01EC006F01FC007F020C008F058EC55
:1010E00009F00150176E49D81750300FDF6E182ADB
:1010F0001750016E026A036A046A1DC005F01EC023
:1011000006F01FC007F020C008F094EC0AF0015070
:10111000195E02501A5A03501B5A04501C5A010EF1
:10112000176E1DC001F01EC002F01FC003F020C0EA
:1011300004F00A0E056E066A076A086A58EC09F0A0
:1011400001C01DF002C01EF003C01FF004C020F05B
:101150000CD805E21D501E101F102010A5E105D867
:10116000D8B012000AD8DF6A000C1850156E166A43
:101170001350155C14501658120012501824D96ED2
:10118000DA6A12000F01386B396B3A6B3B6B3C6BC0
:10119000700ED36E93EC09F0190E3ED8140E106E3B
:1011A000EDEC09F040D8EEEC0AF02D0E35D80E0E1D
:1011B000106EEDEC09F0030E1BEC0BF034D8EEECE6
:1011C0000AF0010E29D8180E106EEDEC09F02BD89C
:1011D000EEEC0AF03B0E20D80A0E106EEDEC09F092
:1011E00005EC0BF008C035F009C036F01FD8EEEC66
:1011F0000AF0140E11D8050E106EEDEC09F016D899
:10120000EEEC0AF035C021F036C022F0D6EC0AF040
:10121000FA0E40EC0BF0E4D70E6E0E50D8A4100E70
:101220000F6E116A1200010E0E6E000C010E0E6E92
:101230000A0C066E0250070BC06E0BD0010E376E03
:10124000920E336E0F0E346E380E316E0F0E326EFC
:1012500002D00650F3E0035009E003C005F0030E8E
:101260000516D8900536D8900534C11217D8DF502E
:10127000386E3850371012D8DF6E15D8DF5037105F
:1012800012D8DF6E0644E846FC0B0109C26E04501A
:10129000BAEC0AF0C2500209C26E120033C0D9FF84
:1012A00034C0DAFF120031C0D9FF32C0DAFF1200B9
:1012B000096A0A6A0B6A0C6A0550061007100810C2
:1012C00029E0010E0D6E06D0D89005360636073699
:1012D00008360D2A08AEF8D7D89009360A360B36EC
:1012E0000C360550015C0650025807500358085050
:1012F000045809E30550015E0650025A0750035A8C
:101300000850045A0980D890083207320632053254
:101310000D2EE2D709C001F00AC002F00BC003F0A5
:101320000CC004F01200390402E0270E3A6E7FEC84
:101330000BF00C0E40EC0BF0030E6CEC0AF0040EFC
:1013400040EC0BF0030E6CEC0AF0030E6CEC0AF0B0
:10135000040E40EC0BF0020E6CEC0AF00A6A2C0E44
:101360002FEC0BF00A6A060E2FEC0BF00A6A0C0E3B
:101370002FEC0BF00A6A010E2FEC0BF0020E40EF7F
:101380000BF0026E036A800E046E14D00250041437
:1013900002E0938002D093908190010EBAEC0AF0A3
:1013A0009382010EBAEC0AF081A2FED79392819249
:1013B000D89004320450EAE19380010EBAEC0AF0AE
:1013C0009382010EBAEC0AF0938081A002D0010E44
:1013D000036E9392819203501200156A0EC001F0C1
:1013E0000FC002F010C003F011C004F018EC0AF0B6
:1013F0000150146E19D0100E0A6E15500E24126E84
:10140000000E0F20136E12C0F6FF13C0F7FF000E80
:10141000F86E0F0EF76403D00800F55002D03CECD4
:101420000AF02FEC0BF0152A1450155CE4E31200BF
:10143000076A086A17D007500124056E0850022079
:10144000066E05C0F6FF06C0F7FF000EF86E0F0E21
:10145000F76403D00800F55001D00ED8000907E06A
:10146000074A082A0350075C04500858E4E307C001
:1014700001F008C002F01200F6CFE9FFF7CFEAFF53
:10148000EF501200056EC2B2FED705501AE0C450EC
:10149000036E046AD89003360436D89003360436B7
:1014A00003C006F004C007F0C3CF03F0060E046EBD
:1014B000D8900332042EFCD706500310066E075056
:1014C00003D0C4CF06F0076AC2500209C26E06C03C
:1014D00001F007C002F01200086E08C005F00F0E00
:1014E00005160538F00B066E08380F0B076E061050
:1014F000096E4EEC0BF03A503A24C1EC09F0095059
:101500000C09C1EC09F069EC0BF0640EBAEC0AF0BE
:101510004EEC0BF03A503A24C1EC09F0095008099E
:10152000C1EC09F069EF0BF0096A0A6A0B6A0C6AF0
:1015300001A008D00550092606500A2207500B22A8
:1015400008500C22D8900536063607360836D89053
:10155000043203320232013201500210031004102F
:10156000E7E109C001F00AC002F00BC003F00CC0B3
:1015700004F01200016E06D0850EE82EFED700F0B2
:10158000640E015E640E0160F7D706D00D0EE82EE2
:10159000FED700F00A0E015E0A0E0160F7D702D0F6
:1015A00000D000D001060128FBE1120021C00EF09E
:1015B00022C00FF0000E0FBEFF0E106E116E230E34
:1015C000126E146A0A0E136E23EC08F0230E0E6ED0
:1015D0000F6A116A0A0E106EEDEF09F00F6E0E50D1
:1015E00002E1800E09D00E0402E1C00E05D0020E09
:1015F0000E18940ED8A4D40E0E6E0A6A0E500F2444
:101600002FEC0BF0020E40EF0BF0030E026E036A9C
:10161000280E046E000E19EC09F0010E42EC0AF0DF
:1016200001C00AF002C00BF075EC0BF00AC008F024
:101630000BC009F01200036E046A0DD0FA0E40ECE4
:101640000BF0FA0E40EC0BF0FA0E40EC0BF0FA0E39
:1016500040EC0BF0042A0350045CF0E312000D6E22
:101660000D380F0B09D86CEC0AF00D50F00B0B6E17
:101670000D1802D86CEF0AF00C6E0C500A10120014
:10168000026E08D0060E016E300EE82EFED7012E37
:10169000FCD700D002060228F5E112009382938065
:1016A000010EBAEC0AF005D8BAEC0AF093928192D6
:1016B000120093908190010C00EE2DF00F0EEE6A57
:1016C000E806FDE13C903C92000EF86E0001C2EF8E
:1016D00008F09392819259EC0BF0BAEC0AF09382E5
:1016E000010EBAEC0AF0938012004EEC09F038C0FB
:1016F000DFFF53EC09F0000EDF6AC26A120093802C
:0417000093821200BE
:020000040030CA
:0E000000FF09193CFFBF80FF0FC00FE00F404B
:00000001FF
